00COTAHIST.2010BOVESPA 20101230                                                                                                                                                                                                                      
012010010402ABCB4       010ABC BRASIL  PN  EJ  N2   R$  000000000120000000000012420000000001200000000000123200000000012350000000001234000000000123500421000000000000205500000000000253269800000000000000009999123100000010000000000000BRABCBACNPR4109
012010010496ABCB4F      020ABC BRASIL  PN  EJ  N2   R$  000000000121000000000012510000000001210000000000122800000000012400000000001238000000000124000017000000000000000423000000000000520805000000000000009999123100000010000000000000BRABCBACNPR4109
012010010402ABNB3       010ABNOTE      ON  ED  NM   R$  000000000189700000000019450000000001890000000000191300000000019300000000001925000000000193000240000000000000289400000000000553926000000000000000009999123100000010000000000000BRABNBACNOR4114
012010010496ABNB3F      020ABNOTE      ON  ED  NM   R$  000000000189500000000019150000000001895000000000191300000000019150000000001895000000000191500004000000000000000033000000000000063159000000000000009999123100000010000000000000BRABNBACNOR4114
012010010462ABNB3T      030ABNOTE      ON  ED  NM031R$  000000000192600000000019270000000001926000000000192600000000019270000000000000000000000000000002000000000000004000000000000007707860000000000000009999123100000010000000000000BRABNBACNOR4114
012010010402ABYA3       010ABYARA      ON      NM   R$  000000000046100000000004620000000000457000000000045900000000004600000000000460000000000046100483000000000000901100000000000414143600000000000000009999123100000010000000000000BRABYAACNOR3104
012010010496ABYA3F      020ABYARA      ON      NM   R$  000000000045800000000004620000000000455000000000045700000000004600000000000456000000000046000031000000000000000852000000000000390080000000000000009999123100000010000000000000BRABYAACNOR3104
012010010462ABYA3T      030ABYARA      ON      NM030R$  000000000046300000000004650000000000462000000000046300000000004640000000000000000000000000000016000000000000026000000000000012045284000000000000009999123100000010000000000000BRABYAACNOR3104
012010010462ABYA3T      030ABYARA      ON      NM053R$  000000000046400000000004650000000000464000000000046400000000004650000000000000000000000000000002000000000000030000000000000013949041000000000000009999123100000010000000000000BRABYAACNOR3104
012010010402ACGU3       010GUARANI     ON      NM   R$  000000000056500000000005780000000000560000000000057200000000005780000000000575000000000057800891000000000000713800000000000408929000000000000000009999123100000010000000000000BRACGUACNOR6102
012010010496ACGU3F      020GUARANI     ON      NM   R$  000000000056400000000005800000000000564000000000057100000000005720000000000572000000000057400041000000000000000873000000000000498953000000000000009999123100000010000000000000BRACGUACNOR6102
012010010462ACGU3T      030GUARANI     ON      NM030R$  000000000057600000000005770000000000576000000000057600000000005770000000000000000000000000000004000000000000015500000000000008939930000000000000009999123100000010000000000000BRACGUACNOR6102
012010010462ACGU3T      030GUARANI     ON      NM060R$  000000000057700000000005820000000000577000000000057900000000005820000000000000000000000000000010000000000000076000000000000044026948000000000000009999123100000010000000000000BRACGUACNOR6102
012010010402AEDU11      010ANHANGUERA  UNT     N2   R$  000000000248700000000025450000000002487000000000252400000000025100000000002508000000000251001359000000000000452800000000001143255000000000000000009999123100000010000000000000BRAEDUCDAM18102
012010010496AEDU11F     020ANHANGUERA  UNT     N2   R$  000000000248700000000025400000000002486000000000250600000000025340000000002401000000000252900025000000000000000772000000000001935188000000000000009999123100000010000000000000BRAEDUCDAM18102
012010010402AELP3       010AES ELPA    ON           R$  000000000420000000000042000000000004200000000000420000000000042000000000004201000000000439900002000000000000000700000000000002940000000000000000009999123100000010000000000000BRAELPACNOR2111
012010010496AELP3F      020AES ELPA    ON           R$  000000000430000000000043000000000004300000000000430000000000043000000000004109000000000430000001000000000000000001000000000000004300000000000000009999123100000010000000000000BRAELPACNOR2111
012010010402AGEN11      010AGRENCO     DR3          R$  000000000029000000000002910000000000275000000000028000000000002790000000000278000000000027901536000000000004546300000000001273690700000000000000009999123100000010000000000000BRAGENBDR001100
012010010496AGEN11F     020AGRENCO     DR3          R$  000000000028600000000002860000000000277000000000027900000000002770000000000277000000000027800029000000000000001011000000000000282980000000000000009999123100000010000000000000BRAGENBDR001100
012010010462AGEN11T     030AGRENCO     DR3       091R$  000000000028200000000002850000000000282000000000028300000000002850000000000000000000000000000004000000000000015000000000000004247051000000000000009999123100000010000000000000BRAGENBDR001100
012010010402AGIN3       010AGRA INCORP ON      NM   R$  000000000049700000000005020000000000491000000000049500000000005000000000000500000000000050104916000000000002496000000000001238044600000000000000009999123100000010000000000000BRAGINACNOR8102
012010010496AGIN3F      020AGRA INCORP ON      NM   R$  000000000049900000000005000000000000492000000000049400000000004950000000000495000000000050000008000000000000000128000000000000063359000000000000009999123100000010000000000000BRAGINACNOR8102
012010010462AGIN3T      030AGRA INCORP ON      NM016R$  000000000050100000000005020000000000501000000000050100000000005020000000000000000000000000000002000000000000024300000000000012180458000000000000009999123100000010000000000000BRAGINACNOR8102
012010010462AGIN3T      030AGRA INCORP ON      NM030R$  000000000050300000000005040000000000496000000000050100000000004990000000000000000000000000000008000000000000025000000000000012536089000000000000009999123100000010000000000000BRAGINACNOR8102
012010010462AGIN3T      030AGRA INCORP ON      NM060R$  000000000049900000000005020000000000499000000000050100000000005020000000000000000000000000000004000000000000008000000000000004010939000000000000009999123100000010000000000000BRAGINACNOR8102
012010010402AGRO3       010BRASILAGRO  ON      NM   R$  000000000102500000000010250000000001020000000000102400000000010200000000001015000000000104500002000000000000006000000000000006145000000000000000009999123100000010000000000000BRAGROACNOR7102
012010010402ALLL11      010ALL AMER LATUNT     N2   R$  000000000165400000000017050000000001633000000000167900000000017050000000001696000000000170504491000000000002341500000000003931896300000000000000009999123100000010000000000000BRALLLCDAM10109
012010010496ALLL11F     020ALL AMER LATUNT     N2   R$  000000000161500000000017000000000001615000000000166700000000017000000000001680000000000170500182000000000000004611000000000007697325000000000000009999123100000010000000000000BRALLLCDAM10109
012010010462ALLL11T     030ALL AMER LATUNT     N2017R$  000000000166300000000016640000000001662000000000166300000000016630000000000000000000000000000004000000000000010000000000000016632655000000000000009999123100000010000000000000BRALLLCDAM10109
012010010462ALLL11T     030ALL AMER LATUNT     N2030R$  000000000165500000000016800000000001655000000000165700000000016800000000000000000000000000000004000000000000011000000000000018234583000000000000009999123100000010000000000000BRALLLCDAM10109
012010010402ALLL3       010ALL AMER LATON      N2   R$  000000000063500000000006350000000000635000000000063500000000006350000000000501000000000000000002000000000000000600000000000000381000000000000000009999123100000010000000000000BRALLLACNOR6113
012010010496ALLL3F      020ALL AMER LATON      N2   R$  000000000061000000000006100000000000610000000000061000000000006100000000000610000000000079900001000000000000000029000000000000017690000000000000009999123100000010000000000000BRALLLACNOR6113
012010010402ALLL4       010ALL AMER LATPN      N2   R$  000000000024900000000002660000000000249000000000025100000000002590000000000246000000000026200015000000000000008600000000000002164200000000000000009999123100000010000000000000BRALLLACNPR3112
012010010496ALLL4F      020ALL AMER LATPN      N2   R$  000000000021200000000002550000000000212000000000023800000000002120000000000212000000000029900011000000000000000290000000000000069255000000000000009999123100000010000000000000BRALLLACNPR3112
012010010412ALMI11B     010FII TORRE ALCI  ER  MB   R$  000000017500000000001750000000000175000000000017500000000001750000000000000000000000000000000004000000000000000046000000000008050000000000000000009999123100000010000000000000BRALMICTF003161
012010010402ALPA4       010ALPARGATAS  PN      N1   R$  000000001149500000000115000000000011400000000001145000000000115000000000011400000000001150000025000000000000003900000000000044657900000000000000009999123100000010000000000000BRALPAACNPR7185
012010010496ALPA4F      020ALPARGATAS  PN      N1   R$  000000001160000000000116000000000011390000000001150600000000113900000000011400000000001147000002000000000000000009000000000000103560000000000000009999123100000010000000000000BRALPAACNPR7185
012010010402AMBV3       010AMBEV       ON           R$  000000001484900000000153200000000014700000000001510200000000153000000000015217000000001530000096000000000000032900000000000496872600000000000000009999123100000010000000000000BRAMBVACNOR4137
012010010496AMBV3F      020AMBEV       ON           R$  000000001474800000000154000000000014700000000001508800000000152100000000014700000000001540000029000000000000000625000000000009430213000000000000009999123100000010000000000000BRAMBVACNOR4137
012010010402AMBV4       010AMBEV       PN           R$  000000001745900000000178100000000017320000000001761400000000177600000000017695000000001776001067000000000000243400000000004288470800000000000000009999123100000010000000000000BRAMBVACNPR1137
012010010496AMBV4F      020AMBEV       PN           R$  000000001745000000000178050000000017350000000001757100000000178050000000017680000000001782300107000000000000002077000000000036501708000000000000009999123100000010000000000000BRAMBVACNPR1137
012010010402AMIL3       010AMIL        ON  EJ  NM   R$  000000000137000000000014300000000001370000000000141300000000014100000000001405000000000141000909000000000000184400000000000260650300000000000000009999123100000010000000000000BRAMILACNOR0103
012010010496AMIL3F      020AMIL        ON  EJ  NM   R$  000000000137000000000014750000000001370000000000143800000000014750000000001341000000000141500005000000000000000075000000000000107920000000000000009999123100000010000000000000BRAMILACNOR0103
012010010462AMIL3T      030AMIL        ON  EJ  NM016R$  000000000143000000000014310000000001430000000000143000000000014310000000000000000000000000000002000000000000001500000000000002145896000000000000009999123100000010000000000000BRAMILACNOR0103
012010010496APTI4F      020ALIPERTI    PN           R$  000000005000000000000500000000000050000000000005000000000000500000000000050000000000008000000003000000000000000005000000000000250000000000000000009999123100000010000000000000BRAPTIACNPR3121
012010010402AVIL3       010ACOS VILL   ON  EJ       R$  000000000006500000000000650000000000064000000000006400000000000650000000000064000000000006500060000000000000635000000000000040977000000000000000009999123100000010000000000000BRAVILACNOR1179
012010010496AVIL3F      020ACOS VILL   ON  EJ       R$  000000000006500000000000660000000000064000000000006400000000000640000000000064000000000006500029000000000000006237000000000000402881000000000000009999123100000010000000000000BRAVILACNOR1179
012010010462AVIL3T      030ACOS VILL   ON  EJ    031R$  000000000006500000000000660000000000065000000000006500000000000660000000000000000000000000000002000000000000145000000000000009494745000000000000009999123100000010000000000000BRAVILACNOR1179
012010010402BALM4       010BAUMER      PN           R$  000000000360200000000036020000000003602000000000360200000000036020000000003150000000000445000001000000000000000100000000000000360200000000000000009999123100000010000000000000BRBALMACNPR2039
012010010402BAUH4       010EXCELSIOR   PN           R$  000000000039000000000003900000000000390000000000039000000000003900000000000380000000000038700001000000000000000200000000000000078000000000000000009999123100000010000000000000BRBAUHACNPR3108
012010010402BAZA3       010AMAZONIA    ON           R$  000000000006800000000000700000000000064000000000006700000000000660000000000065000000000006600274000000000002599000000000000174291000000000000000009999123100000010000000000000BRBAZAACNOR0156
012010010496BAZA3F      020AMAZONIA    ON           R$  000000000007000000000000700000000000065000000000006700000000000650000000000065000000000006800024000000000000005116000000000000345979000000000000009999123100000010000000000000BRBAZAACNOR0156
012010010462BAZA3T      030AMAZONIA    ON        030R$  000000000006800000000000700000000000066000000000006800000000000670000000000000000000000000000008000000000000212000000000000014509642000000000000009999123100000010000000000000BRBAZAACNOR0156
012010010462BAZA3T      030AMAZONIA    ON        060R$  000000000006700000000000680000000000066000000000006700000000000670000000000000000000000000000004000000000000050000000000000003364826000000000000009999123100000010000000000000BRBAZAACNOR0156
012010010422BBAS13      010BRASIL      BNS C   NM   R$  000000000589900000000059060000000005894000000000590100000000058940000000005731000000000589400020000000000000005300000000000031275500000000000000009999123100000010000000000000BRBBASN02OR5101
012010010496BBAS13F     020BRASIL      BNS C   NM   R$  000000000566000000000056600000000005660000000000566000000000056600000000005674000000000589400002000000000000000018000000000000101880000000000000009999123100000010000000000000BRBBASN02OR5101
012010010402BBAS3       010BRASIL      ON  EJ  NM   R$  000000000298000000000030000000000002970000000000299000000000029900000000002990000000000299505266000000000003660200000000010946184100000000000000009999123100000010000000000000BRBBASACNOR3209
012010010496BBAS3F      020BRASIL      ON  EJ  NM   R$  000000000295000000000030000000000002950000000000298100000000030000000000002985000000000300000286000000000000008286000000000024712637000000000000009999123100000010000000000000BRBBASACNOR3209
012010010462BBAS3T      030BRASIL      ON  EJ  NM016R$  000000000301300000000030140000000003007000000000301000000000030080000000000000000000000000000004000000000000004500000000000013545180000000000000009999123100000010000000000000BRBBASACNOR3209
012010010462BBAS3T      030BRASIL      ON  EJ  NM030R$  000000000300800000000030230000000003002000000000301400000000030100000000000000000000000000000028000000000000023100000000000069642184000000000000009999123100000010000000000000BRBBASACNOR3209
012010010462BBAS3T      030BRASIL      ON  EJ  NM060R$  000000000302600000000030270000000003026000000000302600000000030270000000000000000000000000000002000000000000001000000000000003026428000000000000009999123100000010000000000000BRBBASACNOR3209
012010010478BBASA31     070BBASE   /EJ ON      NM000R$  000000000002400000000000250000000000024000000000002400000000000250000000000000000000000000000004000000000000001800000000000000044600000000000308402010011800000010000000000000BRBBASACNOR3208
012010010402BBDC3       010BRADESCO    ON      N1   R$  000000000299900000000031000000000002999000000000306000000000031000000000003083000000000310000313000000000000260100000000000796049800000000000000009999123100000010000000000000BRBBDCACNOR1546
012010010496BBDC3F      020BRADESCO    ON      N1   R$  000000000300000000000031000000000002999000000000304100000000031000000000003080000000000310000030000000000000000652000000000001984550000000000000009999123100000010000000000000BRBBDCACNOR1546
012010010402BBDC4       010BRADESCO    PN      N1   R$  000000000368500000000037930000000003680000000000375700000000037700000000003770000000000378805936000000000003635200000000013658632300000000000000009999123100000010000000000000BRBBDCACNPR8546
012010010496BBDC4F      020BRADESCO    PN      N1   R$  000000000367500000000037880000000003671000000000374200000000037880000000003736000000000378800334000000000000007330000000000027439255000000000000009999123100000010000000000000BRBBDCACNPR8546
012010010462BBDC4T      030BRADESCO    PN      N1030R$  000000000373100000000037440000000003731000000000374200000000037440000000000000000000000000000004000000000000010300000000000038549773000000000000009999123100000010000000000000BRBBDCACNPR8546
012010010462BBDC4T      030BRADESCO    PN      N1060R$  000000000377200000000037730000000003772000000000377200000000037730000000000000000000000000000002000000000000000100000000000000377295000000000000009999123100000010000000000000BRBBDCACNPR8546
012010010462BBDC4T      030BRADESCO    PN      N1091R$  000000000383700000000038380000000003835000000000383700000000038360000000000000000000000000000004000000000000001500000000000005755846000000000000009999123100000010000000000000BRBBDCACNPR8546
012010010478BBDCA34     070BBDC        PN      N1000R$  000000000037100000000003710000000000371000000000037100000000003710000000000000000000000000000001000000000000000500000000000000185500000000000335202010011800000010000000000000BRBBDCACNPR8544
012010010438BBDCA34E    012BBDC        PN      N1000R$  000000000335200000000033520000000003352000000000335200000000033520000000000000000000000000000002000000000000002000000000000006704000000000000335202010011800000010000000000000BRBBDCACNPR8546
012010010478BBDCA36     070BBDC        PN      N1000R$  000000000019700000000002450000000000197000000000021700000000002450000000000018000000000026900010000000000000007400000000000001609400000000000355202010011800000010000000000000BRBBDCACNPR8544
012010010478BBDCA38     070BBDC        PN      N1000R$  000000000005500000000000990000000000049000000000008300000000000850000000000026000000000010900039000000000000138000000000000011564500000000000375202010011800000010000000000000BRBBDCACNPR8544
012010010478BBDCA39     070BBDCE       PN      N1000R$  000000000002800000000000280000000000028000000000002800000000000280000000000000000000000000000002000000000000003000000000000000084000000000000390002010011800000010000000000000BRBBDCACNPR8546
012010010478BBDCB36     070BBDC        PN      N1000R$  000000000016200000000001620000000000162000000000016200000000001620000000000000000000000000000001000000000000003000000000000000486000000000000360002010020800000010000000000000BRBBDCACNPR8546
012010010412BBFI11B     010FII BB PROGRCI  ER  MB   R$  000000021510300000002151030000000215103000000021510300000002151030000000000000000000000000000004000000000000000022000000000004732266000000000000009999123100000010000000000000BRBBFICTF006154
012010010402BBRK3       010BR BROKERS  ON      NM   R$  000000000063200000000006540000000000632000000000064100000000006360000000000631000000000064100436000000000002282100000000001464933400000000000000009999123100000010000000000000BRBBRKACNOR4104
012010010496BBRK3F      020BR BROKERS  ON      NM   R$  000000000065000000000006990000000000650000000000066300000000006990000000000615000000000095000008000000000000000297000000000000196953000000000000009999123100000010000000000000BRBBRKACNOR4104
012010010402BDLL4       010BARDELLA    PN           R$  000000001420000000000145900000000014200000000001444700000000145900000000014001000000001460000004000000000000000400000000000005778900000000000000009999123100000010000000000000BRBDLLACNPR8145
012010010422BEEF11      010MINERVA     BNS ORD NM   R$  000000000019500000000001950000000000182000000000018600000000001900000000000182000000000019000011000000000000012000000000000002234300000000000000009999123100000010000000000000BRBEEFN01OR0100
012010010496BEEF11F     020MINERVA     BNS ORD NM   R$  000000000019000000000002180000000000190000000000019700000000002180000000000156000000000021800005000000000000000107000000000000021086000000000000009999123100000010000000000000BRBEEFN01OR0100
012010010402BEEF3       010MINERVA     ON      NM   R$  000000000058000000000005840000000000577000000000058100000000005820000000000581000000000058200386000000000000134300000000000078070600000000000000009999123100000010000000000000BRBEEFACNOR6102
012010010496BEEF3F      020MINERVA     ON      NM   R$  000000000058500000000005850000000000580000000000058200000000005800000000000580000000000058200010000000000000000321000000000000186780000000000000009999123100000010000000000000BRBEEFACNOR6102
012010010462BEEF3T      030MINERVA     ON      NM016R$  000000000058300000000005870000000000583000000000058500000000005870000000000000000000000000000008000000000000007700000000000004505484000000000000009999123100000010000000000000BRBEEFACNOR6102
012010010402BEES3       010BANESTES    ON           R$  000000000069000000000006900000000000687000000000068800000000006890000000000689000000000069400029000000000000018200000000000012525900000000000000009999123100000010000000000000BRBEESACNOR9200
012010010496BEES3F      020BANESTES    ON           R$  000000000068000000000006900000000000680000000000068200000000006880000000000681000000000068800006000000000000000095000000000000064884000000000000009999123100000010000000000000BRBEESACNOR9200
012010010402BEES4       010BANESTES    PN           R$  000000000067000000000006950000000000661000000000067000000000006950000000000661000000000069500004000000000000000700000000000000469200000000000000009999123100000010000000000000BRBEESACNPR6125
012010010402BEMA3       010BEMATECH    ON      NM   R$  000000000085000000000008700000000000836000000000086000000000008700000000000865000000000087000161000000000000153700000000000132269500000000000000009999123100000010000000000000BRBEMAACNOR0104
012010010496BEMA3F      020BEMATECH    ON      NM   R$  000000000084500000000008650000000000845000000000085800000000008650000000000850000000000088000008000000000000000149000000000000127945000000000000009999123100000010000000000000BRBEMAACNOR0104
012010010462BEMA3T      030BEMATECH    ON      NM016R$  000000000086800000000008700000000000868000000000086900000000008700000000000000000000000000000004000000000000020000000000000017392693000000000000009999123100000010000000000000BRBEMAACNOR0104
012010010402BGIP4       010BANESE      PN           R$  000000000210000000000021000000000002100000000000210000000000021000000000002070000000000212000002000000000000001600000000000003360000000000000000009999123100000010000000000000BRBGIPACNPR8164
012010010496BICB3F      020BICBANCO    ON  EJ  N1   R$  000000000124000000000012400000000001240000000000124000000000012400000000001240000000000154000002000000000000000060000000000000074400000000000000009999123100000010000000000000BRBICBACNOR0110
012010010402BICB4       010BICBANCO    PN  EJ  N1   R$  000000000122900000000012290000000001208000000000122000000000012250000000001224000000000122500588000000000000410300000000000500939100000000000000009999123100000010000000000000BRBICBACNPR7110
012010010496BICB4F      020BICBANCO    PN  EJ  N1   R$  000000000121800000000012790000000001218000000000122200000000012770000000001226000000000127500009000000000000000209000000000000255538000000000000009999123100000010000000000000BRBICBACNPR7110
012010010462BICB4T      030BICBANCO    PN  EJ  N1016R$  000000000123000000000012310000000001230000000000123000000000012310000000000000000000000000000004000000000000001600000000000001968697000000000000009999123100000010000000000000BRBICBACNPR7110
012010010462BICB4T      030BICBANCO    PN  EJ  N1030R$  000000000122900000000012350000000001229000000000123000000000012350000000000000000000000000000020000000000000015400000000000018952163000000000000009999123100000010000000000000BRBICBACNPR7110
012010010410BIOM10      010BIOMM       PN  REC      R$  000000000027000000000002700000000000270000000000027000000000002700000000000270000000000029900002000000000000002000000000000000540000000000000000009999123100000010000000000000BRBIOMR01PR4100
012010010496BIOM3F      020BIOMM       ON           R$  000000000029000000000002900000000000290000000000029000000000002900000000000290000000000000000002000000000000000033000000000000009570000000000000009999123100000010000000000000BRBIOMACNOR2101
012010010496BIOM4F      020BIOMM       PN           R$  000000000029000000000002900000000000290000000000029000000000002900000000000270000000000029000001000000000000000100000000000000029000000000000000009999123100000010000000000000BRBIOMACNPR9101
012010010402BISA3       010BROOKFIELD  ON      NM   R$  000000000078200000000007850000000000755000000000076500000000007680000000000768000000000076903749000000000002193700000000001678443500000000000000009999123100000010000000000000BRBISAACNOR8104
012010010496BISA3F      020BROOKFIELD  ON      NM   R$  000000000078000000000007810000000000750000000000077100000000007700000000000765000000000077400019000000000000000431000000000000331803000000000000009999123100000010000000000000BRBISAACNOR8104
012010010462BISA3T      030BROOKFIELD  ON      NM030R$  000000000077000000000007780000000000763000000000077300000000007700000000000000000000000000000018000000000000028700000000000022193457000000000000009999123100000010000000000000BRBISAACNOR8104
012010010462BISA3T      030BROOKFIELD  ON      NM060R$  000000000079400000000007960000000000771000000000077600000000007760000000000000000000000000000008000000000000013000000000000010089479000000000000009999123100000010000000000000BRBISAACNOR8104
012010010462BISA3T      030BROOKFIELD  ON      NM113R$  000000000079300000000007940000000000793000000000079300000000007940000000000000000000000000000002000000000000040000000000000031722788000000000000009999123100000010000000000000BRBISAACNOR8104
012010010410BMEB1       010MERC BRASIL DIR ORD      R$  000000000017500000000001990000000000170000000000017400000000001990000000000175000000000019900020000000000000017200000000000003009000000000000000009999123100000010000000000000BRBMEBD02OR1179
012010010496BMEB1F      020MERC BRASIL DIR ORD      R$  000000000020000000000002000000000000165000000000017200000000001700000000000171000000000019800003000000000000000079000000000000013610000000000000009999123100000010000000000000BRBMEBD02OR1179
012010010402BMEB3       010MERC BRASIL ON  ES       R$  000000000102000000000010200000000001020000000000102000000000010200000000000990000000000101500001000000000000000100000000000000102000000000000000009999123100000010000000000000BRBMEBACNOR8180
012010010402BMEB4       010MERC BRASIL PN  ES       R$  000000000099100000000010800000000000980000000000100000000000010800000000000985000000000108000005000000000000001500000000000001501400000000000000009999123100000010000000000000BRBMEBACNPR5181
012010010462BMEB4T      030MERC BRASIL PN  ES    120R$  000000000100600000000010070000000001006000000000100600000000010070000000000000000000000000000002000000000000000200000000000000201233000000000000009999123100000010000000000000BRBMEBACNPR5181
012010010402BMIN4       010MERC INVEST PN           R$  000000000004400000000000440000000000043000000000004300000000000430000000000042000000000004300004000000000000004000000000000000173000000000000000009999123100000010000000000000BRBMINACNPR1152
012010010402BMTO4       010BRASMOTOR   PN           R$  000000000008100000000000810000000000080000000000008000000000000800000000000079000000000008100025000000000000074000000000000005924000000000000000009999123100000010000000000000BRBMTOACNPR6062
012010010496BMTO4F      020BRASMOTOR   PN           R$  000000000008000000000000810000000000080000000000008000000000000800000000000080000000000008100005000000000000001623000000000000130483000000000000009999123100000010000000000000BRBMTOACNPR6062
012010010402BNCA3       010NOSSA CAIXA ON  EJ  NM   R$  000000000654300000000068100000000006543000000000676600000000068100000000006547000000000681000012000000000000007300000000000049393600000000000000009999123100000010000000000000BRBNCAACNOR2114
012010010496BNCA3F      020NOSSA CAIXA ON  EJ  NM   R$  000000000661500000000067200000000006615000000000668200000000067000000000006700000000000679800004000000000000000086000000000000574690000000000000009999123100000010000000000000BRBNCAACNOR2114
012010010402BOBR4       010BOMBRIL     PN           R$  000000000088100000000009070000000000881000000000089700000000009000000000000881000000000090000023000000000000026300000000000023592300000000000000009999123100000010000000000000BRBOBRACNPR3127
012010010414BOVA11      010ISHARES BOVACI           R$  000000000685500000000069450000000006830000000000691100000000069370000000006937000000000694500106000000000000168300000000001163259800000000000000009999123100000010000000000000BRBOVACTF003100
012010010496BOVA11F     020ISHARES BOVACI           R$  000000000699900000000069990000000006838000000000686400000000069010000000006850000000000692000007000000000000000079000000000000542292000000000000009999123100000010000000000000BRBOVACTF003100
012010010402BPNM4       010PANAMERICANOPN  EJ  N1   R$  000000000107000000000010750000000001040000000000105500000000010640000000001064000000000107000635000000000000194200000000000204921500000000000000009999123100000010000000000000BRBPNMACNPR6107
012010010496BPNM4F      020PANAMERICANOPN  EJ  N1   R$  000000000104500000000010700000000001025000000000105700000000010700000000001025000000000107000038000000000000000912000000000000965465000000000000009999123100000010000000000000BRBPNMACNPR6107
012010010402BRAP3       010BRADESPAR   ON      N1   R$  000000000395000000000039800000000003950000000000397400000000039800000000003851000000000399900003000000000000001000000000000003974000000000000000009999123100000010000000000000BRBRAPACNOR5117
012010010496BRAP3F      020BRADESPAR   ON      N1   R$  000000000390000000000039000000000003900000000000390000000000039000000000003707000000000394900002000000000000000129000000000000503100000000000000009999123100000010000000000000BRBRAPACNOR5117
012010010402BRAP4       010BRADESPAR   PN      N1   R$  000000000390000000000039200000000003844000000000390000000000039200000000003890000000000392000925000000000000712600000000002779794000000000000000009999123100000010000000000000BRBRAPACNPR2117
012010010496BRAP4F      020BRADESPAR   PN      N1   R$  000000000389900000000039390000000003836000000000388600000000039090000000003861000000000394000047000000000000001204000000000004679006000000000000009999123100000010000000000000BRBRAPACNPR2117
012010010462BRAP4T      030BRADESPAR   PN      N1030R$  000000000391700000000039180000000003916000000000391700000000039170000000000000000000000000000004000000000000000600000000000002350524000000000000009999123100000010000000000000BRBRAPACNPR2117
012010010402BRFS3       010BRF FOODS   ON  EJ  NM   R$  000000000452000000000046590000000004461000000000457600000000045790000000004579000000000459002666000000000001512500000000006922816300000000000000009999123100000010000000000000BRBRFSACNOR8101
012010010496BRFS3F      020BRF FOODS   ON  EJ  NM   R$  000000000449000000000046500000000004422000000000455500000000046030000000004602000000000461000362000000000000009885000000000045034100000000000000009999123100000010000000000000BRBRFSACNOR8101
012010010462BRFS3T      030BRF FOODS   ON  EJ  NM030R$  000000000468300000000046840000000004666000000000467900000000046670000000000000000000000000000004000000000000003800000000000017781270000000000000009999123100000010000000000000BRBRFSACNOR8101
012010010478BRFSA44     070BRFS    /EJ ON      NM000R$  000000000021200000000002120000000000212000000000021200000000002120000000000000000000000000000004000000000000003000000000000000636000000000000440002010011800000010000000000000BRBRFSACNOR8101
012010010402BRIV3       010ALFA INVEST ON           R$  000000000082700000000008270000000000827000000000082700000000008270000000000785000000000082000001000000000000000100000000000000082700000000000000009999123100000010000000000000BRBRIVACNOR6189
012010010402BRIV4       010ALFA INVEST PN           R$  000000000072200000000007290000000000722000000000072300000000007220000000000722000000000074900006000000000000012400000000000008965500000000000000009999123100000010000000000000BRBRIVACNPR3189
012010010496BRIV4F      020ALFA INVEST PN           R$  000000000070500000000007050000000000705000000000070500000000007050000000000702000000000084800001000000000000000054000000000000038070000000000000009999123100000010000000000000BRBRIVACNPR3189
012010010402BRKM3       010BRASKEM     ON      N1   R$  000000000124200000000012480000000001242000000000124500000000012480000000001200000000000124700007000000000000001100000000000001370200000000000000009999123100000010000000000000BRBRKMACNOR1107
012010010402BRKM5       010BRASKEM     PNA     N1   R$  000000000143500000000014530000000001420000000000143700000000014250000000001423000000000142501352000000000000831500000000001194767100000000000000009999123100000010000000000000BRBRKMACNPA4107
012010010496BRKM5F      020BRASKEM     PNA     N1   R$  000000000140600000000014500000000001406000000000143700000000014250000000001418000000000144500051000000000000001224000000000001758999000000000000009999123100000010000000000000BRBRKMACNPA4107
012010010462BRKM5T      030BRASKEM     PNA     N1016R$  000000000144900000000014500000000001449000000000144900000000014500000000000000000000000000000002000000000000002100000000000003043633000000000000009999123100000010000000000000BRBRKMACNPA4107
012010010462BRKM5T      030BRASKEM     PNA     N1018R$  000000000143200000000014330000000001432000000000143200000000014330000000000000000000000000000002000000000000050000000000000071620500000000000000009999123100000010000000000000BRBRKMACNPA4107
012010010462BRKM5T      030BRASKEM     PNA     N1030R$  000000000144900000000014500000000001449000000000144900000000014500000000000000000000000000000008000000000000000400000000000000579628000000000000009999123100000010000000000000BRBRKMACNPA4107
012010010462BRKM5T      030BRASKEM     PNA     N1060R$  000000000146300000000014730000000001447000000000146500000000014480000000000000000000000000000008000000000000004500000000000006595356000000000000009999123100000010000000000000BRBRKMACNPA4107
012010010462BRKM5T      030BRASKEM     PNA     N1078R$  000000000146800000000014690000000001468000000000146800000000014690000000000000000000000000000002000000000000035000000000000051399180000000000000009999123100000010000000000000BRBRKMACNPA4107
012010010462BRKM5T      030BRASKEM     PNA     N1090R$  000000000146300000000014640000000001463000000000146300000000014640000000000000000000000000000002000000000000006400000000000009369517000000000000009999123100000010000000000000BRBRKMACNPA4107
012010010462BRKM5T      030BRASKEM     PNA     N1120R$  000000000147700000000014850000000001477000000000148300000000014850000000000000000000000000000006000000000000002000000000000002967009000000000000009999123100000010000000000000BRBRKMACNPA4107
012010010402BRML3       010BR MALLS PARON      NM   R$  000000000217000000000022090000000002157000000000217900000000021600000000002160000000000217501473000000000000862000000000001878395700000000000000009999123100000010000000000000BRBRMLACNOR9100
012010010496BRML3F      020BR MALLS PARON      NM   R$  000000000214600000000022090000000002146000000000217800000000021710000000002180000000000220900028000000000000000882000000000001921541000000000000009999123100000010000000000000BRBRMLACNOR9100
012010010462BRML3T      030BR MALLS PARON      NM060R$  000000000220600000000022070000000002206000000000220600000000022070000000000000000000000000000002000000000000007000000000000015448772000000000000009999123100000010000000000000BRBRMLACNOR9100
012010010402BRSR3       010BANRISUL    ON      N1   R$  000000000129000000000013000000000001290000000000129900000000013000000000001280000000000130000002000000000000001000000000000001299000000000000000009999123100000010000000000000BRBRSRACNOR3109
012010010402BRSR6       010BANRISUL    PNB     N1   R$  000000000147000000000014700000000001437000000000145600000000014600000000001451000000000146000965000000000000398500000000000580269500000000000000009999123100000010000000000000BRBRSRACNPB4112
012010010496BRSR6F      020BANRISUL    PNB     N1   R$  000000000150000000000015000000000001455000000000146900000000014600000000001450000000000146000007000000000000000173000000000000254125000000000000009999123100000010000000000000BRBRSRACNPB4112
012010010402BRTO3       010BRASIL TELECON           R$  000000000276100000000027990000000002761000000000278100000000027950000000002795000000000279900133000000000000426800000000001186977400000000000000009999123100000010000000000000BRBRTOACNOR8122
012010010496BRTO3F      020BRASIL TELECON           R$  000000000275100000000027900000000002750000000000276800000000027890000000002789000000000280000029000000000000000751000000000002079073000000000000009999123100000010000000000000BRBRTOACNOR8122
012010010402BRTO4       010BRASIL TELECPN           R$  000000000168900000000017050000000001680000000000169300000000017020000000001695000000000170201106000000000000779300000000001319987500000000000000009999123100000010000000000000BRBRTOACNPR5122
012010010496BRTO4F      020BRASIL TELECPN           R$  000000000168000000000017050000000001661000000000168200000000016810000000001681000000000170500040000000000000001176000000000001979215000000000000009999123100000010000000000000BRBRTOACNPR5122
012010010462BRTO4T      030BRASIL TELECPN        030R$  000000000170500000000017170000000001705000000000170900000000017170000000000000000000000000000004000000000000004900000000000008378419000000000000009999123100000010000000000000BRBRTOACNPR5122
012010010402BTOW3       010B2W VAREJO  ON      NM   R$  000000000475000000000047520000000004651000000000469300000000046510000000004651000000000467001328000000000000612100000000002872356800000000000000009999123100000010000000000000BRBTOWACNOR8102
012010010496BTOW3F      020B2W VAREJO  ON      NM   R$  000000000477600000000047760000000004435000000000469800000000046800000000004600000000000470000091000000000000002170000000000010193723000000000000009999123100000010000000000000BRBTOWACNOR8102
012010010462BTOW3T      030B2W VAREJO  ON      NM017R$  000000000469900000000047000000000004699000000000469900000000047000000000000000000000000000000002000000000000005000000000000023497248000000000000009999123100000010000000000000BRBTOWACNOR8102
012010010462BTOW3T      030B2W VAREJO  ON      NM028R$  000000000473300000000047340000000004733000000000473300000000047340000000000000000000000000000002000000000000002300000000000010886596000000000000009999123100000010000000000000BRBTOWACNOR8102
012010010462BTOW3T      030B2W VAREJO  ON      NM030R$  000000000473900000000047400000000004717000000000471800000000047180000000000000000000000000000004000000000000005200000000000024536804000000000000009999123100000010000000000000BRBTOWACNOR8102
012010010462BTOW3T      030B2W VAREJO  ON      NM060R$  000000000478800000000047890000000004788000000000478800000000047890000000000000000000000000000004000000000000003300000000000015801440000000000000009999123100000010000000000000BRBTOWACNOR8102
012010010402BTTL3       010BATTISTELLA ON           R$  000000000006500000000000690000000000065000000000006700000000000690000000000067000000000006900014000000000000222900000000000015035200000000000000009999123100000010000000000000BRBTTLACNOR0105
012010010402BTTL4       010BATTISTELLA PN           R$  000000000007100000000000760000000000070000000000007300000000000750000000000074000000000007500106000000000000343100000000000025264700000000000000009999123100000010000000000000BRBTTLACNPR7105
012010010402BVMF3       010BMFBOVESPA  ON  EJ  NM   R$  000000000122900000000012950000000001229000000000126400000000012950000000001290000000000129519302000000000017414000000000022018842400000000000000009999123100000010000000000000BRBVMFACNOR3107
012010010496BVMF3F      020BMFBOVESPA  ON  EJ  NM   R$  000000000122500000000012870000000001225000000000125800000000012870000000001272000000000128700678000000000000026038000000000032800167000000000000009999123100000010000000000000BRBVMFACNOR3107
012010010462BVMF3T      030BMFBOVESPA  ON  EJ  NM016R$  000000000127300000000012820000000001273000000000128000000000012820000000000000000000000000000004000000000000002300000000000002945341000000000000009999123100000010000000000000BRBVMFACNOR3107
012010010462BVMF3T      030BMFBOVESPA  ON  EJ  NM017R$  000000000125000000000013020000000001250000000000125700000000013020000000000000000000000000000004000000000000011500000000000014461972000000000000009999123100000010000000000000BRBVMFACNOR3107
012010010462BVMF3T      030BMFBOVESPA  ON  EJ  NM030R$  000000000127200000000012820000000001272000000000127700000000012820000000000000000000000000000006000000000000004800000000000006132191000000000000009999123100000010000000000000BRBVMFACNOR3107
012010010478BVMFA11     070BVMF    /EJ ON      NM000R$  000000000016900000000001790000000000169000000000017000000000001790000000000170000000000018000007000000000000002700000000000000460600000000000109902010011800000010000000000000BRBVMFACNOR3106
012010010478BVMFA12     070BVMF    /EJ ON      NM000R$  000000000005300000000001000000000000050000000000006900000000001000000000000095000000000010000713000000000001934600000000000134273600000000000119902010011800000010000000000000BRBVMFACNOR3106
012010010478BVMFA13     070BVMF    /EJ ON      NM000R$  000000000000800000000000230000000000006000000000001400000000000230000000000018000000000002300640000000000002792500000000000039368000000000000129902010011800000010000000000000BRBVMFACNOR3106
012010010478BVMFA14     070BVMF    /EJ ON      NM000R$  000000000000200000000000040000000000002000000000000200000000000040000000000003000000000000400042000000000000255700000000000000622200000000000139902010011800000010000000000000BRBVMFACNOR3106
012010010478BVMFA33     070BVMFE   /EJ ON      NM000R$  000000000001900000000000200000000000019000000000001900000000000190000000000020000000000006000004000000000000038900000000000000740100000000000124902010011800000010000000000000BRBVMFACNOR3106
012010010478BVMFB12     070BVMF    /EJ ON      NM000R$  000000000007100000000001000000000000070000000000007500000000000950000000000095000000000011200042000000000000077300000000000005809500000000000120002010020800000010000000000000BRBVMFACNOR3107
012010010478BVMFB13     070BVMF    /EJ ON      NM000R$  000000000002500000000000400000000000024000000000003100000000000400000000000036000000000005000050000000000000203100000000000006314200000000000129902010020800000010000000000000BRBVMFACNOR3106
012010010482BVMFM12     080BVMFE   /EJ ON      NM000R$  000000000002400000000000240000000000015000000000001500000000000150000000000000000000000000000002000000000000018200000000000000274800000000000119902010011800000010000000000000BRBVMFACNOR3106
012010010402CAMB4       010CAMBUCI     PN           R$  000000000062500000000006250000000000625000000000062500000000006250000000000602000000000062300003000000000000002700000000000001686100000000000000009999123100000010000000000000BRCAMBACNPR1114
012010010402CARD3       010CSU CARDSYSTON      NM   R$  000000000084500000000008990000000000835000000000087400000000008990000000000895000000000089900229000000000000239900000000000210186700000000000000009999123100000010000000000000BRCARDACNOR9100
012010010496CARD3F      020CSU CARDSYSTON      NM   R$  000000000086000000000008880000000000860000000000086200000000008880000000000845000000000090500009000000000000000145000000000000125001000000000000009999123100000010000000000000BRCARDACNOR9100
012010010402CBEE3       010AMPLA ENERG ON *         R$  000000000013700000000001450000000000137000000000013700000000001390000000000136000000000013900019000000000023800000000000000003280700000000000000009999123100010000000000000000BRCBEEACNOR3145
012010010402CBMA3       010COBRASMA    ON           R$  000000000001100000000000110000000000010000000000001000000000000110000000000010000000000001200016000000000000340000000000000003670000000000000000009999123100000010000000000000BRCBMAACNOR4124
012010010496CBMA3F      020COBRASMA    ON           R$  000000000001300000000000130000000000013000000000001300000000000130000000000011000000000001400003000000000000001788000000000000023244000000000000009999123100000010000000000000BRCBMAACNOR4124
012010010402CBMA4       010COBRASMA    PN           R$  000000000001300000000000130000000000013000000000001300000000000130000000000012000000000001300017000000000000380000000000000004940000000000000000009999123100000010000000000000BRCBMAACNPR1124
012010010496CBMA4F      020COBRASMA    PN           R$  000000000001300000000000130000000000013000000000001300000000000130000000000013000000000001400011000000000000021430000000000000278590000000000000009999123100000010000000000000BRCBMAACNPR1124
012010010408CCHI3       010CHIARELLI   ON           R$  000000000004400000000000460000000000041000000000004400000000000430000000000043000000000004400476000000000008530000000000000376970000000000000000009999123100000010000000000000BRCCHIACNOR5123
012010010496CCHI3F      020CHIARELLI   ON           R$  000000000004500000000000460000000000042000000000004400000000000430000000000043000000000004500202000000000000383076000000000017021704000000000000009999123100000010000000000000BRCCHIACNOR5123
012010010408CCHI4       010CHIARELLI   PN           R$  000000000004300000000000430000000000038000000000004000000000000380000000000038000000000003900047000000000000640000000000000025970000000000000000009999123100000010000000000000BRCCHIACNPR2122
012010010496CCHI4F      020CHIARELLI   PN           R$  000000000004000000000000420000000000039000000000004000000000000390000000000039000000000004000029000000000000061304000000000002501786000000000000009999123100000010000000000000BRCCHIACNPR2122
012010010402CCIM3       010CC DES IMOB ON      NM   R$  000000000055900000000005700000000000548000000000056200000000005660000000000563000000000056600194000000000000135200000000000076104000000000000000009999123100000010000000000000BRCCIMACNOR5103
012010010496CCIM3F      020CC DES IMOB ON      NM   R$  000000000054900000000005650000000000549000000000056000000000005650000000000546000000000056500012000000000000000279000000000000156412000000000000009999123100000010000000000000BRCCIMACNOR5103
012010010402CCPR3       010CYRE COM-CCPON      NM   R$  000000000121700000000012170000000001200000000000120800000000012000000000001158000000000120000003000000000000000700000000000000846200000000000000009999123100000010000000000000BRCCPRACNOR9103
012010010496CCPR3F      020CYRE COM-CCPON      NM   R$  000000000114500000000012050000000001145000000000116700000000011810000000001155000000000121700004000000000000000094000000000000109744000000000000009999123100000010000000000000BRCCPRACNOR9103
012010010402CCRO3       010CCR RODOVIASON      NM   R$  000000000399900000000040200000000003915000000000400000000000040100000000004001000000000401001140000000000000363500000000001454128600000000000000009999123100000010000000000000BRCCROACNOR2114
012010010496CCRO3F      020CCR RODOVIASON      NM   R$  000000000400000000000040500000000003931000000000399800000000040490000000003983000000000401500038000000000000000965000000000003859050000000000000009999123100000010000000000000BRCCROACNOR2114
012010010462CCRO3T      030CCR RODOVIASON      NM018R$  000000000403000000000040310000000004030000000000403000000000040310000000000000000000000000000002000000000000010000000000000040308520000000000000009999123100000010000000000000BRCCROACNOR2114
012010010402CEBR6       010CEB         PNB          R$  000000000279000000000027900000000002790000000000279000000000027900000000002585000000000285000001000000000000000100000000000000279000000000000000009999123100000010000000000000BRCEBRACNPB6111
012010010402CEPE5       010CELPE       PNA EJ       R$  000000000455000000000045500000000004550000000000455000000000045500000000004480000000000480000003000000000000000300000000000001365000000000000000009999123100000010000000000000BRCEPEACNPA6138
012010010402CESP3       010CESP        ON      N1   R$  000000000194000000000019740000000001920000000000196500000000019740000000001974000000000198000022000000000000012400000000000024377400000000000000009999123100000010000000000000BRCESPACNOR3147
012010010496CESP3F      020CESP        ON      N1   R$  000000000195000000000019500000000001950000000000195000000000019500000000001801000000000000000003000000000000000100000000000000195000000000000000009999123100000010000000000000BRCESPACNOR3147
012010010402CESP5       010CESP        PNA     N1   R$  000000000271800000000027180000000002718000000000271800000000027180000000002500000000000270500002000000000000000300000000000000815400000000000000009999123100000010000000000000BRCESPACNPA6104
012010010402CESP6       010CESP        PNB     N1   R$  000000000236100000000024840000000002351000000000243700000000024460000000002446000000000247002968000000000000909100000000002216640300000000000000009999123100000010000000000000BRCESPACNPB4106
012010010496CESP6F      020CESP        PNB     N1   R$  000000000238400000000025000000000002384000000000243500000000024220000000002422000000000249500071000000000000001625000000000003956189000000000000009999123100000010000000000000BRCESPACNPB4106
012010010462CESP6T      030CESP        PNB     N1030R$  000000000245000000000024880000000002450000000000245500000000024880000000000000000000000000000008000000000000011000000000000027010852000000000000009999123100000010000000000000BRCESPACNPB4106
012010010402CGAS5       010COMGAS      PNA EJ       R$  000000000339500000000034050000000003379000000000339300000000034000000000003382000000000340000102000000000000033200000000000112674900000000000000009999123100000010000000000000BRCGASACNPA3116
012010010496CGAS5F      020COMGAS      PNA EJ       R$  000000000344400000000035990000000003385000000000345600000000033850000000003385000000000343800014000000000000000259000000000000895276000000000000009999123100000010000000000000BRCGASACNPA3116
012010010402CGRA3       010GRAZZIOTIN  ON  EJ       R$  000000000130000000000013000000000001300000000000130000000000013000000000001209000000000129900001000000000000000200000000000000260000000000000000009999123100000010000000000000BRCGRAACNOR2056
012010010402CIEL3       010CIELO       ON      NM   R$  000000000153200000000015800000000001520000000000155400000000015800000000001571000000000158004256000000000003999600000000006219392000000000000000009999123100000010000000000000BRCIELACNOR3100
012010010496CIEL3F      020CIELO       ON      NM   R$  000000000153000000000015710000000001511000000000154900000000015710000000001560000000000157000179000000000000005286000000000008191711000000000000009999123100000010000000000000BRCIELACNOR3100
012010010462CIEL3T      030CIELO       ON      NM018R$  000000000157800000000015790000000001573000000000157700000000015740000000000000000000000000000010000000000000004500000000000007100637000000000000009999123100000010000000000000BRCIELACNOR3100
012010010462CIEL3T      030CIELO       ON      NM021R$  000000000157300000000015740000000001573000000000157300000000015740000000000000000000000000000002000000000000000500000000000000786725000000000000009999123100000010000000000000BRCIELACNOR3100
012010010462CIEL3T      030CIELO       ON      NM030R$  000000000154800000000015490000000001548000000000154800000000015490000000000000000000000000000004000000000000000600000000000000929167000000000000009999123100000010000000000000BRCIELACNOR3100
012010010462CIEL3T      030CIELO       ON      NM060R$  000000000158900000000015900000000001589000000000158900000000015900000000000000000000000000000002000000000000010000000000000015898677000000000000009999123100000010000000000000BRCIELACNOR3100
012010010462CIEL3T      030CIELO       ON      NM090R$  000000000156500000000015660000000001565000000000156500000000015660000000000000000000000000000002000000000000025000000000000039146337000000000000009999123100000010000000000000BRCIELACNOR3100
012010010462CIEL3T      030CIELO       ON      NM091R$  000000000155800000000015590000000001558000000000155800000000015590000000000000000000000000000002000000000000003000000000000004676905000000000000009999123100000010000000000000BRCIELACNOR3100
012010010478CIELA17     070CIEL        ON      NM000R$  000000000000500000000000050000000000005000000000000500000000000050000000000000000000000003000001000000000000002000000000000000010000000000000170002010011800000010000000000000BRCIELACNOR3100
012010010496CIQU4F      020CACIQUE     PN           R$  000000000068000000000006800000000000680000000000068000000000006800000000000500000000000084900001000000000000000010000000000000006800000000000000009999123100000010000000000000BRCIQUACNPR5154
012010010402CLAN4       010CLARION     PN           R$  000000000150000000000015000000000001500000000000150000000000015000000000000870000000000150000002000000000000000200000000000000300000000000000000009999123100000010000000000000BRCLANACNPR8102
012010010402CLSC6       010CELESC      PNB     N2   R$  000000000355300000000036230000000003500000000000356100000000035990000000003599000000000361500626000000000000158400000000000564357000000000000000009999123100000010000000000000BRCLSCACNPB7125
012010010496CLSC6F      020CELESC      PNB     N2   R$  000000000355000000000037500000000003530000000000357700000000036050000000003600000000000374800021000000000000000683000000000002442136000000000000009999123100000010000000000000BRCLSCACNPB7125
012010010402CMIG3       010CEMIG       ON      N1   R$  000000000245000000000024500000000002400000000000241900000000024390000000002421000000000243900103000000000000044300000000000107209100000000000000009999123100000010000000000000BRCMIGACNOR6201
012010010496CMIG3F      020CEMIG       ON      N1   R$  000000000244300000000024450000000002405000000000243300000000024450000000002420000000000244900020000000000000000525000000000001277663000000000000009999123100000010000000000000BRCMIGACNOR6201
012010010402CMIG4       010CEMIG       PN      N1   R$  000000000316500000000031740000000003128000000000314500000000031370000000003131000000000313702960000000000001330900000000004185419800000000000000009999123100000010000000000000BRCMIGACNPR3201
012010010496CMIG4F      020CEMIG       PN      N1   R$  000000000318000000000031800000000003116000000000315200000000031400000000003115000000000313900102000000000000002425000000000007641920000000000000009999123100000010000000000000BRCMIGACNPR3201
012010010462CMIG4T      030CEMIG       PN      N1030R$  000000000316700000000031680000000003167000000000316700000000031680000000000000000000000000000002000000000000001000000000000003167015000000000000009999123100000010000000000000BRCMIGACNPR3201
012010010462CMIG4T      030CEMIG       PN      N1120R$  000000000324200000000032430000000003223000000000323300000000032240000000000000000000000000000004000000000000004000000000000012933032000000000000009999123100000010000000000000BRCMIGACNPR3201
012010010402CNFB4       010CONFAB      PN      N1   R$  000000000051400000000005260000000000512000000000052000000000005220000000000521000000000052201235000000000001069100000000000555991700000000000000009999123100000010000000000000BRCNFBACNPR8046
012010010496CNFB4F      020CONFAB      PN      N1   R$  000000000051500000000005250000000000510000000000051600000000005170000000000517000000000052100052000000000000001196000000000000618296000000000000009999123100000010000000000000BRCNFBACNPR8046
012010010462CNFB4T      030CONFAB      PN      N1030R$  000000000051700000000005220000000000517000000000052000000000005220000000000000000000000000000004000000000000011600000000000006043012000000000000009999123100000010000000000000BRCNFBACNPR8046
012010010462CNFB4T      030CONFAB      PN      N1060R$  000000000052900000000005300000000000529000000000052900000000005300000000000000000000000000000002000000000000010000000000000005299036000000000000009999123100000010000000000000BRCNFBACNPR8046
012010010462CNFB4T      030CONFAB      PN      N1091R$  000000000052800000000005360000000000528000000000053400000000005360000000000000000000000000000004000000000000000600000000000000320465000000000000009999123100000010000000000000BRCNFBACNPR8046
012010010402COCE3       010COELCE      ON           R$  000000000330000000000033000000000003300000000000330000000000033000000000003110000000000330000001000000000000000100000000000000330000000000000000009999123100000010000000000000BRCOCEACNOR0128
012010010496COCE3F      020COELCE      ON           R$  000000000325000000000032500000000003250000000000325000000000032500000000002801000000000325000001000000000000000059000000000000191750000000000000009999123100000010000000000000BRCOCEACNOR0128
012010010402COCE5       010COELCE      PNA          R$  000000000308000000000033000000000003050000000000313000000000031800000000003180000000000318500220000000000000091900000000000287732700000000000000009999123100000010000000000000BRCOCEACNPA3129
012010010496COCE5F      020COELCE      PNA          R$  000000000310000000000031970000000003085000000000311500000000031970000000003085000000000316900011000000000000000195000000000000607459000000000000009999123100000010000000000000BRCOCEACNPA3129
012010010462COCE5T      030COELCE      PNA       030R$  000000000310200000000031030000000003102000000000310200000000031030000000000000000000000000000002000000000000000100000000000000310279000000000000009999123100000010000000000000BRCOCEACNPA3129
012010010402CPFE3       010CPFL ENERGIAON      NM   R$  000000000356900000000036500000000003564000000000361900000000036500000000003610000000000365000776000000000000297400000000001076608000000000000000009999123100000010000000000000BRCPFEACNOR0112
012010010496CPFE3F      020CPFL ENERGIAON      NM   R$  000000000354000000000037000000000003540000000000362200000000036580000000003622000000000365800037000000000000000706000000000002558083000000000000009999123100000010000000000000BRCPFEACNOR0112
012010010462CPFE3T      030CPFL ENERGIAON      NM120R$  000000000370200000000037030000000003702000000000370200000000037030000000000000000000000000000002000000000000001000000000000003702801000000000000009999123100000010000000000000BRCPFEACNOR0112
012010010402CPLE3       010COPEL       ON      N1   R$  000000000365000000000037700000000003650000000000375400000000037700000000003700000000000377000007000000000000002200000000000008260000000000000000009999123100000010000000000000BRCPLEACNOR8121
012010010496CPLE3F      020COPEL       ON      N1   R$  000000000350100000000035010000000003501000000000350100000000035010000000003501000000000365000001000000000000000009000000000000031509000000000000009999123100000010000000000000BRCPLEACNOR8121
012010010402CPLE6       010COPEL       PNB     N1   R$  000000000372000000000038250000000003708000000000377400000000038250000000003795000000000382501455000000000000371700000000001402928100000000000000009999123100000010000000000000BRCPLEACNPB9118
012010010496CPLE6F      020COPEL       PNB     N1   R$  000000000399200000000039920000000003725000000000376800000000038000000000003790000000000396900021000000000000000866000000000003274194000000000000009999123100000010000000000000BRCPLEACNPB9118
012010010496CPTP3BF     020CAPITALPART ON      MB   R$  000000000003500000000000350000000000035000000000003500000000000350000000000000000000000000000001000000000000000010000000000000000350000000000000009999123100000010000000000000BRCPTPACNOR7103
012010010402CRDE3       010CR2         ON      NM   R$  000000000062000000000006300000000000617000000000062500000000006300000000000625000000000064000039000000000000021800000000000013644800000000000000009999123100000010000000000000BRCRDEACNOR1103
012010010402CREM3       010CREMER      ON  EJ  NM   R$  000000000149000000000014940000000001466000000000147600000000014700000000001467000000000147000087000000000000037200000000000054906400000000000000009999123100000010000000000000BRCREMACNOR2150
012010010496CREM3F      020CREMER      ON  EJ  NM   R$  000000000147000000000014700000000001470000000000147000000000014700000000001402000000000155800002000000000000000015000000000000022050000000000000009999123100000010000000000000BRCREMACNOR2150
012010010402CRIV3       010ALFA FINANC ON           R$  000000000042000000000004200000000000420000000000042000000000004200000000000402000000000042000001000000000000000100000000000000042000000000000000009999123100000010000000000000BRCRIVACNOR4182
012010010402CRIV4       010ALFA FINANC PN           R$  000000000038200000000003840000000000368000000000037000000000003720000000000371000000000037200019000000000000068700000000000025473300000000000000009999123100000010000000000000BRCRIVACNPR1182
012010010496CRIV4F      020ALFA FINANC PN           R$  000000000036200000000003620000000000362000000000036200000000003620000000000360000000000038100001000000000000000040000000000000014480000000000000009999123100000010000000000000BRCRIVACNPR1182
012010010402CRUZ3       010SOUZA CRUZ  ON  EJ       R$  000000000583100000000060990000000005831000000000600400000000060990000000006050000000000609900861000000000000228200000000001370347400000000000000009999123100000010000000000000BRCRUZACNOR0225
012010010496CRUZ3F      020SOUZA CRUZ  ON  EJ       R$  000000000588800000000061000000000005888000000000598700000000061000000000005971000000000610000052000000000000001128000000000006756980000000000000009999123100000010000000000000BRCRUZACNOR0225
012010010462CRUZ3T      030SOUZA CRUZ  ON  EJ    016R$  000000000607600000000060770000000006076000000000607600000000060770000000000000000000000000000002000000000000000300000000000001822986000000000000009999123100000010000000000000BRCRUZACNOR0225
012010010462CRUZ3T      030SOUZA CRUZ  ON  EJ    030R$  000000000591600000000059170000000005916000000000591600000000059170000000000000000000000000000002000000000000000100000000000000591654000000000000009999123100000010000000000000BRCRUZACNOR0225
012010010402CSAN3       010COSAN       ON      NM   R$  000000000254500000000025590000000002475000000000253200000000025500000000002536000000000255001723000000000000996000000000002522696500000000000000009999123100000010000000000000BRCSANACNOR6104
012010010496CSAN3F      020COSAN       ON      NM   R$  000000000256100000000025680000000002510000000000253100000000025500000000002510000000000253500076000000000000001928000000000004884484000000000000009999123100000010000000000000BRCSANACNOR6104
012010010462CSAN3T      030COSAN       ON      NM016R$  000000000256300000000025640000000002563000000000256300000000025640000000000000000000000000000002000000000000004000000000000010252915000000000000009999123100000010000000000000BRCSANACNOR6104
012010010462CSAN3T      030COSAN       ON      NM060R$  000000000255500000000025840000000002555000000000258100000000025840000000000000000000000000000004000000000000003300000000000008517567000000000000009999123100000010000000000000BRCSANACNOR6104
012010010462CSAN3T      030COSAN       ON      NM091R$  000000000259800000000025990000000002598000000000259800000000025990000000000000000000000000000002000000000000002000000000000005197408000000000000009999123100000010000000000000BRCSANACNOR6104
012010010402CSMG3       010COPASA      ON  INT NM   R$  000000000332500000000033900000000003300000000000332400000000033000000000003300000000000332400091000000000000077800000000000258639900000000000000009999123100000010000000000000BRCSMGACNOR5113
012010010496CSMG3F      020COPASA      ON  INT NM   R$  000000000335700000000033570000000003300000000000333000000000033000000000003300000000000338900010000000000000000332000000000001094343000000000000009999123100000010000000000000BRCSMGACNOR5113
012010010402CSNA3       010SID NACIONALON  EJ       R$  000000000560100000000056490000000005596000000000562500000000056210000000005621000000000562602481000000000001620100000000009113346900000000000000009999123100000010000000000000BRCSNAACNOR6236
012010010496CSNA3F      020SID NACIONALON  EJ       R$  000000000559600000000056550000000005596000000000562800000000056300000000005631000000000564000211000000000000004330000000000024371303000000000000009999123100000010000000000000BRCSNAACNOR6236
012010010462CSNA3T      030SID NACIONALON  EJ    016R$  000000000566400000000056650000000005652000000000565500000000056530000000000000000000000000000004000000000000000400000000000002262190000000000000009999123100000010000000000000BRCSNAACNOR6236
012010010462CSNA3T      030SID NACIONALON  EJ    017R$  000000000566400000000056650000000005664000000000566400000000056650000000000000000000000000000002000000000000000300000000000001699350000000000000009999123100000010000000000000BRCSNAACNOR6236
012010010462CSNA3T      030SID NACIONALON  EJ    030R$  000000000565100000000056850000000005646000000000566400000000056650000000000000000000000000000022000000000000043500000000000246401104000000000000009999123100000010000000000000BRCSNAACNOR6236
012010010462CSNA3T      030SID NACIONALON  EJ    060R$  000000000571200000000057160000000005712000000000571400000000057160000000000000000000000000000006000000000000001400000000000008000897000000000000009999123100000010000000000000BRCSNAACNOR6236
012010010462CSNA3T      030SID NACIONALON  EJ    091R$  000000000576000000000057610000000005760000000000576000000000057610000000000000000000000000000002000000000000001800000000000010368811000000000000009999123100000010000000000000BRCSNAACNOR6236
012010010462CSNA3T      030SID NACIONALON  EJ    120R$  000000000580200000000058030000000005802000000000580200000000058030000000000000000000000000000002000000000000001000000000000005802032000000000000009999123100000010000000000000BRCSNAACNOR6236
012010010478CSNAA57     070CSNAE   /EJ ON        000R$  000000000011300000000001130000000000113000000000011300000000001130000000000000000000000000000002000000000000025100000000000002836300000000000570002010011800000010000000000000BRCSNAACNOR6236
012010010478CSNAA58     070CSNA    /EJ ON        000R$  000000000008500000000000870000000000080000000000008300000000000850000000000018000000000010000009000000000000004800000000000000401900000000000576302010011800000010000000000000BRCSNAACNOR6235
012010010478CSNAB54     070CSNA    /EJ ON        000R$  000000000035000000000003500000000000350000000000035000000000003500000000000000000000000000000001000000000000001000000000000000350000000000000540002010020800000010000000000000BRCSNAACNOR6236
012010010496CTAX3F      020CONTAX      ON           R$  000000001050000000000105000000000010500000000001050000000000105000000000010006000000001050000001000000000000000005000000000000052500000000000000009999123100000010000000000000BRCTAXACNOR3106
012010010402CTAX4       010CONTAX      PN           R$  000000001049900000000105000000000010000000000001022100000000102650000000009702000000001026500045000000000000007200000000000073597300000000000000009999123100000010000000000000BRCTAXACNPR0107
012010010496CTAX4F      020CONTAX      PN           R$  000000000990000000000102000000000009900000000000993800000000102000000000009700000000001015000005000000000000000039000000000000387600000000000000009999123100000010000000000000BRCTAXACNPR0107
012010010402CTIP3       010CETIP       ON  EJ  NM   R$  000000000140000000000014200000000001400000000000140200000000014050000000001405000000000141500217000000000000792900000000001112050100000000000000009999123100000010000000000000BRCTIPACNOR2101
012010010496CTIP3F      020CETIP       ON  EJ  NM   R$  000000000141900000000014190000000001350000000000140200000000013970000000001357000000000141600047000000000000002252000000000003158403000000000000009999123100000010000000000000BRCTIPACNOR2101
012010010402CTKA4       010KARSTEN     PN           R$  000000000043000000000004500000000000420000000000042400000000004200000000000406000000000042000003000000000000001800000000000000764000000000000000009999123100000010000000000000BRCTKAACNPR7039
012010010402CTNM4       010COTEMINAS   PN           R$  000000000053500000000005350000000000513000000000051600000000005250000000000521000000000052500442000000000000234500000000000121226800000000000000009999123100000010000000000000BRCTNMACNPR6126
012010010496CTNM4F      020COTEMINAS   PN           R$  000000000053500000000005350000000000535000000000053500000000005350000000000525000000000053000001000000000000000002000000000000001070000000000000009999123100000010000000000000BRCTNMACNPR6126
012010010402CTPC3       010MARAMBAIA   ON           R$  000000000015900000000001590000000000153000000000015400000000001550000000000153000000000015500004000000000000000700000000000000107900000000000000009999123100000010000000000000BRCTPCACNOR5117
012010010496CTPC3F      020MARAMBAIA   ON           R$  000000000013700000000001370000000000137000000000013700000000001370000000000137000000000017000001000000000000000001000000000000000137000000000000009999123100000010000000000000BRCTPCACNOR5117
012010010402CYRE3       010CYRELA REALTON      NM   R$  000000000245500000000024550000000002382000000000241400000000024200000000002412000000000242006936000000000003700600000000008936396300000000000000009999123100000010000000000000BRCYREACNOR7121
012010010496CYRE3F      020CYRELA REALTON      NM   R$  000000000244500000000024550000000002384000000000241500000000024030000000002403000000000241400123000000000000003569000000000008620745000000000000009999123100000010000000000000BRCYREACNOR7121
012010010462CYRE3T      030CYRELA REALTON      NM016R$  000000000245000000000024660000000002420000000000244500000000024610000000000000000000000000000024000000000000250000000000000611307569000000000000009999123100000010000000000000BRCYREACNOR7121
012010010462CYRE3T      030CYRELA REALTON      NM018R$  000000000243200000000024330000000002432000000000243200000000024330000000000000000000000000000002000000000000010000000000000024325840000000000000009999123100000010000000000000BRCYREACNOR7121
012010010462CYRE3T      030CYRELA REALTON      NM021R$  000000000242600000000024270000000002426000000000242600000000024270000000000000000000000000000002000000000000000200000000000000485206000000000000009999123100000010000000000000BRCYREACNOR7121
012010010462CYRE3T      030CYRELA REALTON      NM030R$  000000000242400000000024310000000002409000000000242100000000024280000000000000000000000000000010000000000000003600000000000008716730000000000000009999123100000010000000000000BRCYREACNOR7121
012010010462CYRE3T      030CYRELA REALTON      NM060R$  000000000241500000000024580000000002415000000000244500000000024460000000000000000000000000000010000000000000011100000000000027145878000000000000009999123100000010000000000000BRCYREACNOR7121
012010010462CYRE3T      030CYRELA REALTON      NM091R$  000000000246800000000024690000000002468000000000246800000000024690000000000000000000000000000002000000000000000500000000000001234416000000000000009999123100000010000000000000BRCYREACNOR7121
012010010462CYRE3T      030CYRELA REALTON      NM120R$  000000000247800000000024790000000002478000000000247800000000024790000000000000000000000000000002000000000000002000000000000004956908000000000000009999123100000010000000000000BRCYREACNOR7121
012010010462CYRE3T      030CYRELA REALTON      NM180R$  000000000250700000000025080000000002506000000000250700000000025070000000000000000000000000000004000000000000000290000000000000727066000000000000009999123100000010000000000000BRCYREACNOR7121
012010010402CZLT11      010COSAN LTD   DR3          R$  000000000153000000000015400000000001469000000000151900000000015100000000001510000000000151800236000000000000317700000000000482688200000000000000009999123100000010000000000000BRCZLTBDR009101
012010010496CZLT11F     020COSAN LTD   DR3          R$  000000000154000000000015400000000001490000000000152300000000015200000000001520000000000153000014000000000000000307000000000000467651000000000000009999123100000010000000000000BRCZLTBDR009101
012010010462CZLT11T     030COSAN LTD   DR3       091R$  000000000156100000000015620000000001561000000000156100000000015620000000000000000000000000000002000000000000002000000000000003122118000000000000009999123100000010000000000000BRCZLTBDR009101
012010010402CZRS4       010CRUZEIRO SULPN      N1   R$  000000000127300000000012730000000001235000000000124000000000012480000000001230000000000124900011000000000000007500000000000009301700000000000000009999123100000010000000000000BRCZRSACNPR1108
012010010496CZRS4F      020CRUZEIRO SULPN      N1   R$  000000000128500000000014430000000001285000000000132400000000013300000000001150000000000125500007000000000000000150000000000000198248000000000000009999123100000010000000000000BRCZRSACNPR1108
012010010402DASA3       010DASA        ON      NM   R$  000000000570100000000058500000000005701000000000576700000000057540000000005726000000000575400503000000000000162900000000000939470000000000000000009999123100000010000000000000BRDASAACNOR1103
012010010496DASA3F      020DASA        ON      NM   R$  000000000580500000000058280000000005780000000000580600000000058280000000005700000000000582900009000000000000000276000000000001603341000000000000009999123100000010000000000000BRDASAACNOR1103
012010010402DAYC4       010DAYCOVAL    PN  EJ  N1   R$  000000000097900000000009900000000000970000000000097600000000009900000000000971000000000099000090000000000000261100000000000254946100000000000000009999123100000010000000000000BRDAYCACNPR2111
012010010496DAYC4F      020DAYCOVAL    PN  EJ  N1   R$  000000000095100000000010940000000000951000000000101500000000009760000000000980000000000109400008000000000000000144000000000000146248000000000000009999123100000010000000000000BRDAYCACNPR2111
012010010462DAYC4T      030DAYCOVAL    PN  EJ  N1030R$  000000000097700000000009780000000000977000000000097700000000009780000000000000000000000000000002000000000000001000000000000000977178000000000000009999123100000010000000000000BRDAYCACNPR2111
012010010402DIRR3       010DIRECIONAL  ON      NM   R$  000000000114800000000011550000000001130000000000114400000000011450000000001111000000000115800014000000000000007600000000000008701200000000000000009999123100000010000000000000BRDIRRACNOR0100
012010010496DIRR3F      020DIRECIONAL  ON      NM   R$  000000000112900000000011450000000001107000000000113300000000011450000000001079000000000114500019000000000000000619000000000000701857000000000000009999123100000010000000000000BRDIRRACNOR0100
012010010402DOHL4       010DOHLER      PN           R$  000000000239900000000026000000000002399000000000250400000000026000000000002400000000000265000006000000000000001100000000000002754600000000000000009999123100000010000000000000BRDOHLACNPR9049
012010010402DROG3       010DROGASIL    ON      NM   R$  000000000278100000000028500000000002780000000000283600000000028400000000002830000000000284000111000000000000041100000000000116591200000000000000009999123100000010000000000000BRDROGACNOR1254
012010010496DROG3F      020DROGASIL    ON      NM   R$  000000000289000000000031970000000002890000000000305700000000031970000000002805000000000319700010000000000000000120000000000000366844000000000000009999123100000010000000000000BRDROGACNOR1254
012010010462DROG3T      030DROGASIL    ON      NM060R$  000000000287200000000028730000000002872000000000287200000000028730000000000000000000000000000002000000000000005000000000000014364439000000000000009999123100000010000000000000BRDROGACNOR1254
012010010402DTCY3       010DTCOM-DIRECTON           R$  000000000006600000000000670000000000066000000000006600000000000670000000000063000000000006700002000000000000001800000000000000119000000000000000009999123100000010000000000000BRDTCYACNOR5106
012010010402DTEX3       010DURATEX     ON  EJ  NM   R$  000000000164900000000016940000000001631000000000167700000000016940000000001690000000000169401472000000000001164400000000001953589500000000000000009999123100000010000000000000BRDTEXACNOR3101
012010010496DTEX3F      020DURATEX     ON  EJ  NM   R$  000000000162500000000016920000000001621000000000167400000000016920000000001675000000000169200093000000000000002689000000000004501771000000000000009999123100000010000000000000BRDTEXACNOR3101
012010010462DTEX3T      030DURATEX     ON  EJ  NM030R$  000000000170200000000017030000000001702000000000170200000000017030000000000000000000000000000002000000000000030000000000000051065040000000000000009999123100000010000000000000BRDTEXACNOR3101
012010010402DUFB11      010DUFRYBRAS   DR3          R$  000000000362900000000036700000000003573000000000361700000000036000000000003598000000000360000283000000000000198400000000000717713500000000000000009999123100000010000000000000BRDUFBBDR008102
012010010496DUFB11F     020DUFRYBRAS   DR3          R$  000000000365000000000036500000000003649000000000364900000000036490000000003560000000000366900004000000000000000150000000000000547423000000000000009999123100000010000000000000BRDUFBBDR008102
012010010402DXTG4       010DIXIE TOGA  PN           R$  000000000018200000000001830000000000182000000000018200000000001820000000000180000000000018200005000000000000008300000000000001513400000000000000009999123100000010000000000000BRDXTGACNPR5114
012010010402EALT4       010ACO ALTONA  PN           R$  000000000335000000000033500000000003350000000000335000000000033500000000003160000000000335000001000000000000000100000000000000335000000000000000009999123100000010000000000000BREALTACNPR1122
012010010402EBTP3       010EMBRATEL PARON *         R$  000000000150000000000015000000000001500000000000150000000000015000000000001449000000000159000001000000000000100000000000000000150000000000000000009999123100010000000000000000BREBTPACNOR3110
012010010496EBTP3F      020EMBRATEL PARON *         R$  000000000140500000000016000000000001405000000000144600000000014100000000001450000000000150000015000000000000107894000000000000156043000000000000009999123100010000000000000000BREBTPACNOR3110
012010010402EBTP4       010EMBRATEL PARPN *         R$  000000000150500000000015050000000001505000000000150500000000015050000000001505000000000154000002000000000000300000000000000000451500000000000000009999123100010000000000000000BREBTPACNPR0114
012010010496EBTP4F      020EMBRATEL PARPN *         R$  000000000142900000000015050000000001427000000000148300000000014300000000001430000000000154000008000000000000083598000000000000123974000000000000009999123100010000000000000000BREBTPACNPR0114
012010010402ECOD3       010ECODIESEL   ON      NM   R$  000000000011100000000001230000000000111000000000011800000000001230000000000123000000000012412371000000000148262600000000017551658500000000000000009999123100000010000000000000BRECODACNOR8102
012010010496ECOD3F      020ECODIESEL   ON      NM   R$  000000000011000000000001220000000000109000000000011700000000001210000000000119000000000012100223000000000000006195000000000000730730000000000000009999123100000010000000000000BRECODACNOR8102
012010010462ECOD3T      030ECODIESEL   ON      NM016R$  000000000011300000000001230000000000113000000000012100000000001230000000000000000000000000000024000000000001034500000000000126116345000000000000009999123100000010000000000000BRECODACNOR8102
012010010462ECOD3T      030ECODIESEL   ON      NM017R$  000000000012000000000001210000000000120000000000012000000000001210000000000000000000000000000002000000000000013000000000000001568580000000000000009999123100000010000000000000BRECODACNOR8102
012010010462ECOD3T      030ECODIESEL   ON      NM030R$  000000000011700000000001240000000000111000000000011800000000001240000000000000000000000000000048000000000001153511000000000137019442000000000000009999123100000010000000000000BRECODACNOR8102
012010010462ECOD3T      030ECODIESEL   ON      NM060R$  000000000011900000000001240000000000115000000000012000000000001240000000000000000000000000000018000000000000947000000000000113843887000000000000009999123100000010000000000000BRECODACNOR8102
012010010462ECOD3T      030ECODIESEL   ON      NM077R$  000000000011900000000001200000000000119000000000011900000000001200000000000000000000000000000002000000000000050000000000000005955300000000000000009999123100000010000000000000BRECODACNOR8102
012010010462ECOD3T      030ECODIESEL   ON      NM090R$  000000000012000000000001210000000000120000000000012000000000001210000000000000000000000000000002000000000000007000000000000000842603000000000000009999123100000010000000000000BRECODACNOR8102
012010010462ECOD3T      030ECODIESEL   ON      NM091R$  000000000012000000000001240000000000118000000000012000000000001240000000000000000000000000000006000000000000039000000000000004716731000000000000009999123100000010000000000000BRECODACNOR8102
012010010478ECODA1      070ECOD        ON      NM000R$  000000000001300000000000240000000000013000000000001900000000000240000000000021000000000002400600000000000001825000000000000035458300000000000010002010011800000010000000000000BRECODACNOR8102
012010010478ECODA11     070ECOD        ON      NM000R$  000000000000500000000000150000000000005000000000000700000000000140000000000014000000000001500141000000000001971700000000000015624400000000000011002010011800000010000000000000BRECODACNOR8102
012010010478ECODA12     070ECOD        ON      NM000R$  000000000000300000000000070000000000003000000000000500000000000070000000000006000000000000700350000000000007479700000000000037977400000000000012002010011800000010000000000000BRECODACNOR8102
012010010478ECODA14     070ECOD        ON      NM000R$  000000000000100000000000020000000000001000000000000100000000000020000000000002000000000000300027000000000000420800000000000000831600000000000014002010011800000010000000000000BRECODACNOR8102
012010010478ECODB1      070ECOD        ON      NM000R$  000000000001900000000000260000000000019000000000002200000000000250000000000025000000000002600029000000000000128600000000000002930500000000000010002010020800000010000000000000BRECODACNOR8102
012010010478ECODB11     070ECOD        ON      NM000R$  000000000001200000000000190000000000012000000000001300000000000180000000000016000000000001800009000000000000031500000000000000410000000000000011002010020800000010000000000000BRECODACNOR8102
012010010478ECODB12     070ECOD        ON      NM000R$  000000000000700000000000100000000000007000000000000800000000000090000000000008000000000000900066000000000001230000000000000010228800000000000012002010020800000010000000000000BRECODACNOR8102
012010010402EKTR4       010ELEKTRO     PN  EJ       R$  000000000190400000000019040000000001904000000000190400000000019040000000001940000000000205000001000000000000000100000000000000190400000000000000009999123100000010000000000000BREKTRACNPR7120
012010010402ELEK4       010ELEKEIROZ   PN  EJ       R$  000000000140000000000014000000000001400000000000140000000000014000000000001305000000000141900002000000000000001000000000000001400000000000000000009999123100000010000000000000BRELEKACNPR2114
012010010402ELET3       010ELETROBRAS  ON      N1   R$  000000000368500000000037980000000003638000000000374000000000037790000000003769000000000377901372000000000000957200000000003580621000000000000000009999123100000010000000000000BRELETACNOR6145
012010010496ELET3F      020ELETROBRAS  ON      N1   R$  000000000360500000000038500000000003605000000000372400000000037500000000003726000000000379700044000000000000001027000000000003828656000000000000009999123100000010000000000000BRELETACNOR6145
012010010462ELET3T      030ELETROBRAS  ON      N1030R$  000000000369900000000037000000000003699000000000369900000000037000000000000000000000000000000002000000000000003000000000000011099181000000000000009999123100000010000000000000BRELETACNOR6145
012010010462ELET3T      030ELETROBRAS  ON      N1060R$  000000000382000000000038210000000003820000000000382000000000038210000000000000000000000000000002000000000000000600000000000002292590000000000000009999123100000010000000000000BRELETACNOR6145
012010010462ELET3T      030ELETROBRAS  ON      N1091R$  000000000373800000000038790000000003738000000000378200000000038790000000000000000000000000000014000000000000034000000000000128620545000000000000009999123100000010000000000000BRELETACNOR6145
012010010402ELET6       010ELETROBRAS  PNB     N1   R$  000000000320000000000033300000000003183000000000328000000000033000000000003296000000000331201782000000000000943200000000003094057600000000000000009999123100000010000000000000BRELETACNPB7060
012010010496ELET6F      020ELETROBRAS  PNB     N1   R$  000000000318000000000033680000000003180000000000327600000000033000000000003266000000000330500095000000000000002115000000000006928827000000000000009999123100000010000000000000BRELETACNPB7060
012010010496ELPL3F      020ELETROPAULO ON      N2   R$  000000000331000000000033100000000003310000000000331000000000033100000000003310000000000349900001000000000000000001000000000000003310000000000000009999123100000010000000000000BRELPLACNOR9118
012010010496ELPL5F      020ELETROPAULO PNA     N2   R$  000000000330000000000034500000000003300000000000332200000000034500000000003301000000000345000003000000000000000101000000000000335550000000000000009999123100000010000000000000BRELPLACNPA2114
012010010402ELPL6       010ELETROPAULO PNB     N2   R$  000000000343100000000035620000000003428000000000351400000000035450000000003520000000000354501929000000000000769600000000002704628200000000000000009999123100000010000000000000BRELPLACNPB0111
012010010496ELPL6F      020ELETROPAULO PNB     N2   R$  000000000345000000000035640000000003440000000000350900000000035640000000003545000000000356400066000000000000001416000000000004973951000000000000009999123100000010000000000000BRELPLACNPB0111
012010010462ELPL6T      030ELETROPAULO PNB     N2030R$  000000000350900000000035100000000003509000000000350900000000035100000000000000000000000000000002000000000000000400000000000001403619000000000000009999123100000010000000000000BRELPLACNPB0111
012010010462ELPL6T      030ELETROPAULO PNB     N2060R$  000000000354500000000035920000000003536000000000356700000000035920000000000000000000000000000012000000000000032000000000000114146249000000000000009999123100000010000000000000BRELPLACNPB0111
012010010462ELPL6T      030ELETROPAULO PNB     N2180R$  000000000367100000000036720000000003671000000000367100000000036720000000000000000000000000000002000000000000000200000000000000734298000000000000009999123100000010000000000000BRELPLACNPB0111
012010010496ELUM4F      020ELUMA       PN           R$  000000000300200000000030020000000003002000000000300200000000030020000000003002000000000449900002000000000000000003000000000000009006000000000000009999123100000010000000000000BRELUMACNPR4136
012010010402EMAE4       010EMAE        PN           R$  000000000133400000000013900000000001334000000000135900000000013900000000001326000000000139000003000000000000000400000000000000543800000000000000009999123100000010000000000000BREMAEACNPR1104
012010010496EMAE4F      020EMAE        PN           R$  000000000148000000000014800000000001480000000000148000000000014800000000001300000000000149900001000000000000000050000000000000074000000000000000009999123100000010000000000000BREMAEACNPR1104
012010010402EMBR3       010EMBRAER     ON  EJ  NM   R$  000000000095800000000009870000000000953000000000097400000000009870000000000982000000000098702343000000000003039300000000002961504900000000000000009999123100000010000000000000BREMBRACNOR4151
012010010496EMBR3F      020EMBRAER     ON  EJ  NM   R$  000000000095500000000009820000000000951000000000097100000000009820000000000967000000000098300101000000000000003063000000000002976441000000000000009999123100000010000000000000BREMBRACNOR4151
012010010462EMBR3S      030EMBRAER     ON  EJ  NM060R$  000000000097300000000009740000000000973000000000097300000000009740000000000000000000000000000002000000000000030000000000000029211195000000000000009999123100000010000000000000BREMBRACNOR4151
012010010462EMBR3T      030EMBRAER     ON  EJ  NM060R$  000000000097700000000009840000000000977000000000097800000000009840000000000000000000000000000004000000000000007000000000000006851936000000000000009999123100000010000000000000BREMBRACNOR4151
012010010462EMBR3T      030EMBRAER     ON  EJ  NM018R$  000000000097400000000009880000000000974000000000097700000000009880000000000000000000000000000006000000000000002500000000000002443122000000000000009999123100000010000000000000BREMBRACNOR4151
012010010462EMBR3T      030EMBRAER     ON  EJ  NM030R$  000000000097800000000009790000000000976000000000097800000000009770000000000000000000000000000004000000000000005500000000000005380129000000000000009999123100000010000000000000BREMBRACNOR4151
012010010478EMBRA10     070EMBR    /EJ ON      NM000R$  000000000001900000000000200000000000019000000000001900000000000200000000000000000000000005900003000000000000002400000000000000046000000000000098002010011800000010000000000000BREMBRACNOR4150
012010010402ENBR3       010ENERGIAS BR ON      NM   R$  000000000335500000000034200000000003340000000000337200000000033740000000003340000000000339000733000000000000347800000000001173031000000000000000009999123100000010000000000000BRENBRACNOR2108
012010010496ENBR3F      020ENERGIAS BR ON      NM   R$  000000000336000000000035000000000003314000000000337400000000033500000000003325000000000342800021000000000000000541000000000001821871000000000000009999123100000010000000000000BRENBRACNOR2108
012010010496ENGI11F     020ENERGISA    UNT          R$  000000000105000000000010500000000000901000000000090700000000009010000000000950000000000112000003000000000000000050000000000000045397000000000000009999123100000010000000000000BRENGICDAM16100
012010010402ENGI4       010ENERGISA    PN           R$  000000000020500000000002050000000000204000000000020400000000002040000000000204000000000021100004000000000000008000000000000001636000000000000000009999123100000010000000000000BRENGIACNPR7106
012010010402ENMA3B      010CEMAR       ON      MB   R$  000000000100900000000010770000000001006000000000101000000000010770000000000000000000000000000004000000000000001900000000000001920300000000000000009999123100000010000000000000BRENMAACNOR5106
012010010496ENMA3BF     020CEMAR       ON      MB   R$  000000000100500000000010050000000001005000000000100500000000010050000000000000000000000000000002000000000000000075000000000000075375000000000000009999123100000010000000000000BRENMAACNOR5106
012010010402EQTL3       010EQUATORIAL  ON  EJ  NM   R$  000000000177900000000018400000000001775000000000180600000000017750000000001775000000000180000516000000000000668500000000001207404800000000000000009999123100000010000000000000BREQTLACNOR0108
012010010496EQTL3F      020EQUATORIAL  ON  EJ  NM   R$  000000000180000000000018890000000001800000000000180700000000018010000000001750000000000188700011000000000000000200000000000000361566000000000000009999123100000010000000000000BREQTLACNOR0108
012010010462EQTL3T      030EQUATORIAL  ON  EJ  NM030R$  000000000181700000000018180000000001817000000000181700000000018180000000000000000000000000000002000000000000002000000000000003635270000000000000009999123100000010000000000000BREQTLACNOR0108
012010010462EQTL3T      030EQUATORIAL  ON  EJ  NM060R$  000000000183300000000018340000000001833000000000183300000000018340000000000000000000000000000002000000000000003000000000000005500182000000000000009999123100000010000000000000BREQTLACNOR0108
012010010402ESTC3       010ESTACIO PARTON      NM   R$  000000000249000000000025020000000002377000000000244000000000024210000000002421000000000247000040000000000000039400000000000096139900000000000000009999123100000010000000000000BRESTCACNOR5103
012010010496ESTC3F      020ESTACIO PARTON      NM   R$  000000000247000000000024700000000002470000000000247000000000024700000000001925000000000247000001000000000000000022000000000000054340000000000000009999123100000010000000000000BRESTCACNOR5103
012010010402ESTR4       010ESTRELA     PN           R$  000000000007200000000000720000000000068000000000007000000000000690000000000069000000000007000079000000000000352400000000000024826200000000000000009999123100000010000000000000BRESTRACNPR0142
012010010402ETER3       010ETERNIT     ON  EJ  NM   R$  000000000086300000000008700000000000837000000000085100000000008500000000000837000000000085000152000000000000145000000000000123492900000000000000009999123100000010000000000000BRETERACNOR3199
012010010496ETER3F      020ETERNIT     ON  EJ  NM   R$  000000000086000000000008700000000000846000000000085700000000008460000000000845000000000086800027000000000000000742000000000000636579000000000000009999123100000010000000000000BRETERACNOR3199
012010010462ETER3T      030ETERNIT     ON  EJ  NM030R$  000000000087600000000008770000000000876000000000087600000000008770000000000000000000000000000002000000000000000500000000000000438219000000000000009999123100000010000000000000BRETERACNOR3199
012010010410ETER9       010ETERNIT     ON  REC NM   R$  000000000085000000000008550000000000845000000000085200000000008500000000000835000000000085000011000000000000004100000000000003495500000000000000009999123100000010000000000000BRETERR01OR8198
012010010496ETER9F      020ETERNIT     ON  REC NM   R$  000000000080000000000008470000000000760000000000082100000000008470000000000816000000000084700012000000000000000294000000000000241466000000000000009999123100000010000000000000BRETERR01OR8198
012010010402EUCA4       010EUCATEX     PN           R$  000000000050000000000005060000000000495000000000050000000000005030000000000500000000000050300139000000000000123300000000000061762700000000000000009999123100000010000000000000BREUCAACNPR8027
012010010496EUCA4F      020EUCATEX     PN           R$  000000000051500000000005150000000000501000000000050700000000005010000000000501000000000050700004000000000000000142000000000000072112000000000000009999123100000010000000000000BREUCAACNPR8027
012010010462EUCA4T      030EUCATEX     PN        060R$  000000000050700000000005080000000000506000000000050700000000005070000000000000000000000000000004000000000000015000000000000007611000000000000000009999123100000010000000000000BREUCAACNPR8027
012010010462EUCA4T      030EUCATEX     PN        091R$  000000000051300000000005140000000000513000000000051300000000005140000000000000000000000000000002000000000000002000000000000001026824000000000000009999123100000010000000000000BREUCAACNPR8027
012010010412EURO11      010FII EUROPAR CI  ER       R$  000000001760000000000176000000000017152000000001736500000000171520000000017210000000001777700004000000000000000420000000000007293400000000000000009999123100000010000000000000BREUROCTF011187
012010010402EVEN3       010EVEN        ON      NM   R$  000000000085000000000008500000000000810000000000082800000000008300000000000830000000000083800690000000000000178000000000000147543100000000000000009999123100000010000000000000BREVENACNOR8103
012010010496EVEN3F      020EVEN        ON      NM   R$  000000000082900000000008290000000000829000000000082900000000008290000000000829000000000083600002000000000000000083000000000000068807000000000000009999123100000010000000000000BREVENACNOR8103
012010010462EVEN3T      030EVEN        ON      NM120R$  000000000085200000000008530000000000852000000000085200000000008530000000000000000000000000000002000000000000000500000000000000426081000000000000009999123100000010000000000000BREVENACNOR8103
012010010402EZTC3       010EZTEC       ON      NM   R$  000000000085500000000008690000000000853000000000086300000000008650000000000861000000000086500573000000000000194600000000000167969800000000000000009999123100000010000000000000BREZTCACNOR0102
012010010496EZTC3F      020EZTEC       ON      NM   R$  000000000087000000000008750000000000859000000000086400000000008630000000000859000000000086400012000000000000000370000000000000320041000000000000009999123100000010000000000000BREZTCACNOR0102
012010010462EZTC3T      030EZTEC       ON      NM030R$  000000000087000000000008720000000000870000000000087100000000008720000000000000000000000000000004000000000000005700000000000004964853000000000000009999123100000010000000000000BREZTCACNOR0102
012010010462EZTC3T      030EZTEC       ON      NM060R$  000000000086900000000008700000000000869000000000086900000000008700000000000000000000000000000002000000000000000500000000000000434706000000000000009999123100000010000000000000BREZTCACNOR0102
012010010402FBMC4       010FIBAM       PN           R$  000000000894900000000089490000000008949000000000894900000000089490000000008338000000000895000001000000000000000100000000000000894900000000000000009999123100000010000000000000BRFBMCACNPR0143
012010010402FESA3       010FERBASA     ON  EJ       R$  000000000112500000000011250000000001125000000000112500000000011250000000001132000000000129900001000000000000000100000000000000112500000000000000009999123100000010000000000000BRFESAACNOR8141
012010010402FESA4       010FERBASA     PN  EJ       R$  000000000116600000000011660000000001126000000000113500000000011300000000001128000000000113000366000000000000205800000000000233687700000000000000009999123100000010000000000000BRFESAACNPR5037
012010010496FESA4F      020FERBASA     PN  EJ       R$  000000000115500000000011550000000001105000000000113100000000011330000000001130000000000115100006000000000000000100000000000000113195000000000000009999123100000010000000000000BRFESAACNPR5037
012010010462FESA4S      030FERBASA     PN  EJ    090R$  000000000116500000000011660000000001165000000000116500000000011660000000000000000000000000000002000000000000002000000000000002331984000000000000009999123100000010000000000000BRFESAACNPR5037
012010010462FESA4T      030FERBASA     PN  EJ    030R$  000000000113700000000011380000000001137000000000113700000000011380000000000000000000000000000002000000000000001500000000000001706696000000000000009999123100000010000000000000BRFESAACNPR5037
012010010412FFCI11      010FII RIOB RC CI           R$  000000000013900000000001390000000000135000000000013500000000001390000000000134000000000013900004000000000000011001000000000001489139000000000000009999123100000010000000000000BRFFCICTF005173
012010010402FFTL4       010FOSFERTIL   PN           R$  000000000168000000000016800000000001636000000000166600000000016800000000001680000000000168300608000000000000514600000000000857647300000000000000009999123100000010000000000000BRFFTLACNPR7140
012010010496FFTL4F      020FOSFERTIL   PN           R$  000000000164100000000016810000000001641000000000166600000000016670000000001652000000000167500015000000000000000275000000000000458317000000000000009999123100000010000000000000BRFFTLACNPR7140
012010010462FFTL4T      030FOSFERTIL   PN        017R$  000000000168700000000016880000000001687000000000168700000000016880000000000000000000000000000002000000000000005300000000000008941414000000000000009999123100000010000000000000BRFFTLACNPR7140
012010010462FFTL4T      030FOSFERTIL   PN        030R$  000000000168200000000016830000000001673000000000167400000000016740000000000000000000000000000004000000000000003600000000000006028757000000000000009999123100000010000000000000BRFFTLACNPR7140
012010010402FHER3       010FER HERINGERON      NM   R$  000000000107600000000010980000000001075000000000108200000000010800000000001080000000000108600111000000000000118300000000000128030400000000000000009999123100000010000000000000BRFHERACNOR5102
012010010496FHER3F      020FER HERINGERON      NM   R$  000000000114900000000011490000000001082000000000108900000000010890000000001075000000000109000010000000000000000388000000000000422663000000000000009999123100000010000000000000BRFHERACNOR5102
012010010402FIBR3       010FIBRIA      ON      N1   R$  000000000390900000000039310000000003890000000000391600000000039300000000003912000000000393001612000000000000995800000000003900920800000000000000009999123100000010000000000000BRFIBRACNOR9100
012010010496FIBR3F      020FIBRIA      ON      N1   R$  000000000389000000000039290000000003890000000000391000000000039200000000003905000000000392000188000000000000005178000000000020266922000000000000009999123100000010000000000000BRFIBRACNOR9100
012010010462FIBR3T      030FIBRIA      ON      N1016R$  000000000394100000000039420000000003941000000000394100000000039420000000000000000000000000000002000000000000002500000000000009853968000000000000009999123100000010000000000000BRFIBRACNOR9100
012010010462FIBR3T      030FIBRIA      ON      N1030R$  000000000393600000000039370000000003936000000000393600000000039370000000000000000000000000000010000000000000000800000000000003149299000000000000009999123100000010000000000000BRFIBRACNOR9100
